{
  "address": "0x19b3ae395b62DAB9407DeAF0f24E4EbE9b321bd1",
  "abi": [
    {
      "inputs": [
        {
          "internalType": "uint256",
          "name": "_lockTime",
          "type": "uint256"
        },
        {
          "internalType": "address",
          "name": "dataFeedAddr",
          "type": "address"
        }
      ],
      "stateMutability": "nonpayable",
      "type": "constructor"
    },
    {
      "inputs": [],
      "name": "fund",
      "outputs": [],
      "stateMutability": "payable",
      "type": "function"
    },
    {
      "inputs": [
        {
          "internalType": "address",
          "name": "",
          "type": "address"
        }
      ],
      "name": "fundersToAmount",
      "outputs": [
        {
          "internalType": "uint256",
          "name": "",
          "type": "uint256"
        }
      ],
      "stateMutability": "view",
      "type": "function"
    },
    {
      "inputs": [],
      "name": "getChainlinkDataFeedLatestAnswer",
      "outputs": [
        {
          "internalType": "int256",
          "name": "",
          "type": "int256"
        }
      ],
      "stateMutability": "view",
      "type": "function"
    },
    {
      "inputs": [],
      "name": "getDataFeed",
      "outputs": [
        {
          "internalType": "contract AggregatorV3Interface",
          "name": "",
          "type": "address"
        }
      ],
      "stateMutability": "view",
      "type": "function"
    },
    {
      "inputs": [],
      "name": "getFund",
      "outputs": [],
      "stateMutability": "nonpayable",
      "type": "function"
    },
    {
      "inputs": [],
      "name": "getFundSuccess",
      "outputs": [
        {
          "internalType": "bool",
          "name": "",
          "type": "bool"
        }
      ],
      "stateMutability": "view",
      "type": "function"
    },
    {
      "inputs": [],
      "name": "owner",
      "outputs": [
        {
          "internalType": "address",
          "name": "",
          "type": "address"
        }
      ],
      "stateMutability": "view",
      "type": "function"
    },
    {
      "inputs": [],
      "name": "refund",
      "outputs": [],
      "stateMutability": "nonpayable",
      "type": "function"
    },
    {
      "inputs": [
        {
          "internalType": "address",
          "name": "_erc20Addr",
          "type": "address"
        }
      ],
      "name": "setErc20Addr",
      "outputs": [],
      "stateMutability": "nonpayable",
      "type": "function"
    },
    {
      "inputs": [
        {
          "internalType": "address",
          "name": "funder",
          "type": "address"
        },
        {
          "internalType": "uint256",
          "name": "amountToUpdate",
          "type": "uint256"
        }
      ],
      "name": "setFunderToAmount",
      "outputs": [],
      "stateMutability": "nonpayable",
      "type": "function"
    },
    {
      "inputs": [
        {
          "internalType": "address",
          "name": "newOwner",
          "type": "address"
        }
      ],
      "name": "transferOwnership",
      "outputs": [],
      "stateMutability": "nonpayable",
      "type": "function"
    }
  ],
  "transactionHash": "0x098910fdfcf20b8483dd1e987b2e9d87c26b589c21d2550b875cca7699b460b1",
  "args": [
    300,
    "0x694AA1769357215DE4FAC081bf1f309aDC325306"
  ],
  "numDeployments": 1,
  "solcInputHash": "2050d9ba75a014f3513547c7f9807a0f",
  "bytecode": "0x60806040526000600560146101000a81548160ff0219169083151502179055503480156200002c57600080fd5b506040516200165d3803806200165d83398181016040528101906200005291906200018f565b80600160006101000a81548173ffffffffffffffffffffffffffffffffffffffff021916908373ffffffffffffffffffffffffffffffffffffffff16021790555033600260006101000a81548173ffffffffffffffffffffffffffffffffffffffff021916908373ffffffffffffffffffffffffffffffffffffffff16021790555042600381905550816004819055505050620001d6565b600080fd5b6000819050919050565b6200010481620000ef565b81146200011057600080fd5b50565b6000815190506200012481620000f9565b92915050565b600073ffffffffffffffffffffffffffffffffffffffff82169050919050565b600062000157826200012a565b9050919050565b62000169816200014a565b81146200017557600080fd5b50565b60008151905062000189816200015e565b92915050565b60008060408385031215620001a957620001a8620000ea565b5b6000620001b98582860162000113565b9250506020620001cc8582860162000178565b9150509250929050565b61147780620001e66000396000f3fe60806040526004361061009c5760003560e01c8063a8b121df11610064578063a8b121df14610160578063b60d42881461018b578063bea4dfb514610195578063d39cf006146101c0578063da4658e0146101e9578063f2fde38b146102145761009c565b806313ffff01146100a1578063590e1ae3146100ca5780638da5cb5b146100e15780638edd6eb61461010c5780639f883a0514610123575b600080fd5b3480156100ad57600080fd5b506100c860048036038101906100c39190610bf4565b61023d565b005b3480156100d657600080fd5b506100df610311565b005b3480156100ed57600080fd5b506100f661056a565b6040516101039190610c30565b60405180910390f35b34801561011857600080fd5b50610121610590565b005b34801561012f57600080fd5b5061014a60048036038101906101459190610bf4565b6107d6565b6040516101579190610c64565b60405180910390f35b34801561016c57600080fd5b506101756107ee565b6040516101829190610cde565b60405180910390f35b610193610818565b005b3480156101a157600080fd5b506101aa610902565b6040516101b79190610d12565b60405180910390f35b3480156101cc57600080fd5b506101e760048036038101906101e29190610d59565b6109a3565b005b3480156101f557600080fd5b506101fe610a7a565b60405161020b9190610db4565b60405180910390f35b34801561022057600080fd5b5061023b60048036038101906102369190610bf4565b610a8d565b005b600260009054906101000a900473ffffffffffffffffffffffffffffffffffffffff1673ffffffffffffffffffffffffffffffffffffffff163373ffffffffffffffffffffffffffffffffffffffff16146102cd576040517f08c379a00000000000000000000000000000000000000000000000000000000081526004016102c490610e52565b60405180910390fd5b80600560006101000a81548173ffffffffffffffffffffffffffffffffffffffff021916908373ffffffffffffffffffffffffffffffffffffffff16021790555050565b6004546003546103219190610ea1565b421015610363576040517f08c379a000000000000000000000000000000000000000000000000000000000815260040161035a90610f21565b60405180910390fd5b683635c9adc5dea0000061037647610b61565b106103b6576040517f08c379a00000000000000000000000000000000000000000000000000000000081526004016103ad90610f8d565b60405180910390fd5b60008060003373ffffffffffffffffffffffffffffffffffffffff1673ffffffffffffffffffffffffffffffffffffffff1681526020019081526020016000205403610437576040517f08c379a000000000000000000000000000000000000000000000000000000000815260040161042e90610ff9565b60405180910390fd5b60003373ffffffffffffffffffffffffffffffffffffffff166000803373ffffffffffffffffffffffffffffffffffffffff1673ffffffffffffffffffffffffffffffffffffffff1681526020019081526020016000205460405161049b9061104a565b60006040518083038185875af1925050503d80600081146104d8576040519150601f19603f3d011682016040523d82523d6000602084013e6104dd565b606091505b50508091505080610523576040517f08c379a000000000000000000000000000000000000000000000000000000000815260040161051a906110ab565b60405180910390fd5b60008060003373ffffffffffffffffffffffffffffffffffffffff1673ffffffffffffffffffffffffffffffffffffffff1681526020019081526020016000208190555050565b600260009054906101000a900473ffffffffffffffffffffffffffffffffffffffff1681565b6004546003546105a09190610ea1565b4210156105e2576040517f08c379a00000000000000000000000000000000000000000000000000000000081526004016105d990610f21565b60405180910390fd5b600260009054906101000a900473ffffffffffffffffffffffffffffffffffffffff1673ffffffffffffffffffffffffffffffffffffffff163373ffffffffffffffffffffffffffffffffffffffff1614610672576040517f08c379a000000000000000000000000000000000000000000000000000000000815260040161066990610e52565b60405180910390fd5b683635c9adc5dea0000061068547610b61565b10156106c6576040517f08c379a00000000000000000000000000000000000000000000000000000000081526004016106bd90611117565b60405180910390fd5b60003373ffffffffffffffffffffffffffffffffffffffff16476040516106ec9061104a565b60006040518083038185875af1925050503d8060008114610729576040519150601f19603f3d011682016040523d82523d6000602084013e61072e565b606091505b50508091505080610774576040517f08c379a000000000000000000000000000000000000000000000000000000000815260040161076b906110ab565b60405180910390fd5b60008060003373ffffffffffffffffffffffffffffffffffffffff1673ffffffffffffffffffffffffffffffffffffffff168152602001908152602001600020819055506001600560146101000a81548160ff02191690831515021790555050565b60006020528060005260406000206000915090505481565b6000600160009054906101000a900473ffffffffffffffffffffffffffffffffffffffff16905090565b68056bc75e2d6310000061082b34610b61565b101561086c576040517f08c379a000000000000000000000000000000000000000000000000000000000815260040161086390611183565b60405180910390fd5b60045460035461087c9190610ea1565b42106108bd576040517f08c379a00000000000000000000000000000000000000000000000000000000081526004016108b4906111ef565b60405180910390fd5b346000803373ffffffffffffffffffffffffffffffffffffffff1673ffffffffffffffffffffffffffffffffffffffff16815260200190815260200160002081905550565b600080600160009054906101000a900473ffffffffffffffffffffffffffffffffffffffff1673ffffffffffffffffffffffffffffffffffffffff1663feaf968c6040518163ffffffff1660e01b815260040160a060405180830381865afa158015610972573d6000803e3d6000fd5b505050506040513d601f19601f820116820180604052508101906109969190611292565b5050509150508091505090565b600560009054906101000a900473ffffffffffffffffffffffffffffffffffffffff1673ffffffffffffffffffffffffffffffffffffffff163373ffffffffffffffffffffffffffffffffffffffff1614610a33576040517f08c379a0000000000000000000000000000000000000000000000000000000008152600401610a2a9061137f565b60405180910390fd5b806000808473ffffffffffffffffffffffffffffffffffffffff1673ffffffffffffffffffffffffffffffffffffffff168152602001908152602001600020819055505050565b600560149054906101000a900460ff1681565b600260009054906101000a900473ffffffffffffffffffffffffffffffffffffffff1673ffffffffffffffffffffffffffffffffffffffff163373ffffffffffffffffffffffffffffffffffffffff1614610b1d576040517f08c379a0000000000000000000000000000000000000000000000000000000008152600401610b1490610e52565b60405180910390fd5b80600260006101000a81548173ffffffffffffffffffffffffffffffffffffffff021916908373ffffffffffffffffffffffffffffffffffffffff16021790555050565b600080610b6c610902565b90506305f5e1008184610b7f919061139f565b610b899190611410565b915050919050565b600080fd5b600073ffffffffffffffffffffffffffffffffffffffff82169050919050565b6000610bc182610b96565b9050919050565b610bd181610bb6565b8114610bdc57600080fd5b50565b600081359050610bee81610bc8565b92915050565b600060208284031215610c0a57610c09610b91565b5b6000610c1884828501610bdf565b91505092915050565b610c2a81610bb6565b82525050565b6000602082019050610c456000830184610c21565b92915050565b6000819050919050565b610c5e81610c4b565b82525050565b6000602082019050610c796000830184610c55565b92915050565b6000819050919050565b6000610ca4610c9f610c9a84610b96565b610c7f565b610b96565b9050919050565b6000610cb682610c89565b9050919050565b6000610cc882610cab565b9050919050565b610cd881610cbd565b82525050565b6000602082019050610cf36000830184610ccf565b92915050565b6000819050919050565b610d0c81610cf9565b82525050565b6000602082019050610d276000830184610d03565b92915050565b610d3681610c4b565b8114610d4157600080fd5b50565b600081359050610d5381610d2d565b92915050565b60008060408385031215610d7057610d6f610b91565b5b6000610d7e85828601610bdf565b9250506020610d8f85828601610d44565b9150509250929050565b60008115159050919050565b610dae81610d99565b82525050565b6000602082019050610dc96000830184610da5565b92915050565b600082825260208201905092915050565b7f746869732066756e6374696f6e2063616e206f6e6c792062652063616c6c656460008201527f206279206f776e65720000000000000000000000000000000000000000000000602082015250565b6000610e3c602983610dcf565b9150610e4782610de0565b604082019050919050565b60006020820190508181036000830152610e6b81610e2f565b9050919050565b7f4e487b7100000000000000000000000000000000000000000000000000000000600052601160045260246000fd5b6000610eac82610c4b565b9150610eb783610c4b565b9250828201905080821115610ecf57610ece610e72565b5b92915050565b7f77696e646f77206973206e6f7420636c6f736564000000000000000000000000600082015250565b6000610f0b601483610dcf565b9150610f1682610ed5565b602082019050919050565b60006020820190508181036000830152610f3a81610efe565b9050919050565b7f5461726765742069732072656163686564000000000000000000000000000000600082015250565b6000610f77601183610dcf565b9150610f8282610f41565b602082019050919050565b60006020820190508181036000830152610fa681610f6a565b9050919050565b7f7468657265206973206e6f2066756e6420666f7220796f750000000000000000600082015250565b6000610fe3601883610dcf565b9150610fee82610fad565b602082019050919050565b6000602082019050818103600083015261101281610fd6565b9050919050565b600081905092915050565b50565b6000611034600083611019565b915061103f82611024565b600082019050919050565b600061105582611027565b9150819050919050565b7f7472616e73666572207478206661696c65640000000000000000000000000000600082015250565b6000611095601283610dcf565b91506110a08261105f565b602082019050919050565b600060208201905081810360008301526110c481611088565b9050919050565b7f546172676574206973206e6f7420726561636865640000000000000000000000600082015250565b6000611101601583610dcf565b915061110c826110cb565b602082019050919050565b60006020820190508181036000830152611130816110f4565b9050919050565b7f53656e64206d6f72652045544800000000000000000000000000000000000000600082015250565b600061116d600d83610dcf565b915061117882611137565b602082019050919050565b6000602082019050818103600083015261119c81611160565b9050919050565b7f77696e646f7720697320636c6f73656400000000000000000000000000000000600082015250565b60006111d9601083610dcf565b91506111e4826111a3565b602082019050919050565b60006020820190508181036000830152611208816111cc565b9050919050565b600069ffffffffffffffffffff82169050919050565b61122e8161120f565b811461123957600080fd5b50565b60008151905061124b81611225565b92915050565b61125a81610cf9565b811461126557600080fd5b50565b60008151905061127781611251565b92915050565b60008151905061128c81610d2d565b92915050565b600080600080600060a086880312156112ae576112ad610b91565b5b60006112bc8882890161123c565b95505060206112cd88828901611268565b94505060406112de8882890161127d565b93505060606112ef8882890161127d565b92505060806113008882890161123c565b9150509295509295909350565b7f796f7520646f206e6f742068617665207065726d697373696f6e20746f20636160008201527f6c6c20746869732066756e74696f6e0000000000000000000000000000000000602082015250565b6000611369602f83610dcf565b91506113748261130d565b604082019050919050565b600060208201905081810360008301526113988161135c565b9050919050565b60006113aa82610c4b565b91506113b583610c4b565b92508282026113c381610c4b565b915082820484148315176113da576113d9610e72565b5b5092915050565b7f4e487b7100000000000000000000000000000000000000000000000000000000600052601260045260246000fd5b600061141b82610c4b565b915061142683610c4b565b925082611436576114356113e1565b5b82820490509291505056fea264697066735822122043c6943bb157271f234ecb9726c2c26d3f7a9df868d2302d11169bd11f033a2f64736f6c63430008180033",
  "devdoc": {
    "kind": "dev",
    "methods": {},
    "version": 1
  },
  "userdoc": {
    "kind": "user",
    "methods": {},
    "version": 1
  },
  "storageLayout": {
    "storage": [
      {
        "astId": 53,
        "contract": "contracts/FundMe.sol:FundMe",
        "label": "fundersToAmount",
        "offset": 0,
        "slot": "0",
        "type": "t_mapping(t_address,t_uint256)"
      },
      {
        "astId": 63,
        "contract": "contracts/FundMe.sol:FundMe",
        "label": "dataFeed",
        "offset": 0,
        "slot": "1",
        "type": "t_contract(AggregatorV3Interface)45"
      },
      {
        "astId": 72,
        "contract": "contracts/FundMe.sol:FundMe",
        "label": "owner",
        "offset": 0,
        "slot": "2",
        "type": "t_address"
      },
      {
        "astId": 74,
        "contract": "contracts/FundMe.sol:FundMe",
        "label": "deploymentTimestamp",
        "offset": 0,
        "slot": "3",
        "type": "t_uint256"
      },
      {
        "astId": 76,
        "contract": "contracts/FundMe.sol:FundMe",
        "label": "lockTime",
        "offset": 0,
        "slot": "4",
        "type": "t_uint256"
      },
      {
        "astId": 78,
        "contract": "contracts/FundMe.sol:FundMe",
        "label": "erc20Addr",
        "offset": 0,
        "slot": "5",
        "type": "t_address"
      },
      {
        "astId": 81,
        "contract": "contracts/FundMe.sol:FundMe",
        "label": "getFundSuccess",
        "offset": 20,
        "slot": "5",
        "type": "t_bool"
      }
    ],
    "types": {
      "t_address": {
        "encoding": "inplace",
        "label": "address",
        "numberOfBytes": "20"
      },
      "t_bool": {
        "encoding": "inplace",
        "label": "bool",
        "numberOfBytes": "1"
      },
      "t_contract(AggregatorV3Interface)45": {
        "encoding": "inplace",
        "label": "contract AggregatorV3Interface",
        "numberOfBytes": "20"
      },
      "t_mapping(t_address,t_uint256)": {
        "encoding": "mapping",
        "key": "t_address",
        "label": "mapping(address => uint256)",
        "numberOfBytes": "32",
        "value": "t_uint256"
      },
      "t_uint256": {
        "encoding": "inplace",
        "label": "uint256",
        "numberOfBytes": "32"
      }
    }
  }
}